S01B0000496F5450726F6A6563745F48434D55532D4B32322E7333373B
S214012000C00A00208D3D01008F3503008F35030087
S214012010F94A03008F3503008F3503008F3503001F
S2140120208F3503008F3503008F3503008F3503008E
S2140120308F350300A8F803000B4D03008F3503000E
S2140120408F3503008F3503008F3503008F3503006E
S2140120508F3503008F3503008F3503008F3503005E
S2140120608F3503008F3503003995010005380100CF
S214012070333403008F3503008F3503008F3503009B
S2140120808F3503008F3503008F3503008F3503002E
S2140120908F350300494601008F3503008F35030055
S2140120A08F3503008F3503008F3503008F3503000E
S2140120B08F3503008F3503008F350300AD15030000
S2140120C063DB03005FDB0300410D03006FDB0300EE
S2140120D067DB0300711503006BDB0300A5F202004A
S2140120E0ED1503008F3503008F3503008F35030090
S2140120F08F3503008F3503008F3503008F350300BE
S2140121008F3503008F3503008F3503008F350300AD
S2140121108F3503008F3503008F3503008F3503009D
S2140121208F3503008F3503008F3503008F3503008D
S2080121308F350300DE
S214012134F0B5114A114C124E00F00105E3695F0730
S21401214413D40DB9334213D103EA00078F4207D1E2
S2140121540B4A1A40002A0CBF00206FF00100F0BDA4
S214012164013AEBD16FF00200F9E74FF0FF30F6E7E2
S2140121746FF00100F3E700BF80969800000003505B
S214012184020001000B4B70B5D96911F480310DD1F1
S21401219401244FF48072084E084DF46020462C64E6
S2140121A41A61FFF7C5FF3464EC6070BD6FF001007F
S2140121B4FBE700BF0000035000100350002003504B
S2140121C438B541F6713301220C4C0021E569E3630D
S2140121D40B4B05F48035DA6002236061212023610C
S2140121E4FFF7A6FF10B92120FFF7A2FF0122054B36
S2140121F4DA600DB10023E36338BD00BF000003506D
S214012204001003500020035070B5134C6061E3695D
S2140122145B071ED40E4656F8043B8D18A361AE42E6
S2140122240BD10423002121202361FFF781FF58B934
S214012234BDE870402120FFF77BBF08210846FFF761
S21401224477FF10B10423236170BD56F8043BA361E4
S214012254E5E74FF0FF30F7E7000003502DE9F843B8
S214012264154641F67132164B8946DF69DA63012257
S214012274064603F58053DFF8508007F48037DA60AA
S21401228455B9284601220F4BDA601FB10022A3F587
S2140122940053DA63BDE8F88306F5005404EA08043B
S2140122A4A41BAC4228BF2C46494622463046FFF7BB
S2140122B4ABFF0028E6D12644A1442D1BE0E700BF6E
S2100122C4000003500020035000E0FFFF64
S2140122D0013800D0FCE77047002370B5404C054636
S2140122E08AB0E36318B1008823600DF0CDFB3D484A
S2140122F02AF06DFF3C4E3D4B304633603C4B7360DD
S21401230026F0EDFA0021304618F046FC32A3D3E958
S2140123100023A062C4E9062326F0ECFAD4E90623DA
S21401232019431043C4E90601CDE900014FF0FF331C
S2140123304FF0FF32A06A2AF09EFF02224FF0FF31D3
S214012340A06A2AF09DFF01200CF0FAFF4FF40073FB
S21401235000222849A06A2AF0E4FFB0F5007F38D1B0
S21401236000239422CDE9073309933C23CDE90332B8
S21401237005939623A06A03A9069318F0F5FC35B3D6
S214012380287C0DF021FC0546F0B9A06A2BF0A5F8D3
S2140123900DF0C8FB0CF0B6FF20B14FF480700021A1
S2140123A00AF03EF80CF0BEFF20B14FF400600021A9
S2140123B00AF036F826F0C4FB012018F043FC0E4A5A
S2140123C00E49A06A26F089FA28460AB070BDFF2099
S2140123D0D7E70725F8E700BF0DD501552000000017
S2140123E0300B0020690345EC1C1E0020C5F10100DE
S2140123F02C1E00201C1C002083880300C3880300B9
S2140124000348044B834202D0034B03B1184770477D
S214012410703300207033002000000000064B07498F
S214012420C91A891048BF0131491003D0044B0BB1BA
S21401243001481847704700BF7033002070330020F2
S2140124400000000010B5064C237843B9FFF7D8FF0B
S214012450044B13B10448AFF300800123237010BD71
S21401246034260020000000008C28040008B5054B27
S2140124701BB105490548AFF30080BDE80840FFF7EA
S214012480CDBF00BF00000000980D00208C2804007E
S214012490A3F5803A704700BF174B002B08BF134BBC
S2140124A09D46FFF7F5FF00218B460F461348144A59
S2140124B0121A2BF0FDFB0E4B002B00D098470D4B4C
S2140124C0002B00D098470020002104000D000D4885
S2140124D0002802D00C48AFF300801FF033FC200028
S2140124E0290000F02FFE1FF03FFA00BF0000080091
S2140124F00000000000000000C00A0020C00A002002
S214012500682F0020000000000000000000232DE9D5
S214012510F04186B00493002304A8059300F08EFED4
S21401252005A800F0E5FEB6EE007ADDED057A77EE59
S214012530877AFDEEE77A17EE903A9DF810601CB2A6
S214012540632E28BF63260A23B6FBF3F2632CA8BFCB
S214012550632403FB126724EAE474E5B247EA021730
S214012560B5FBF3F203FB125545EA02150D4BFFB21C
S214012570EDB245EA0728424619780B4800F0F8FA0A
S21401258020F0A2FF20F0A1FFCDE901750748CDF8A4
S2140125900080234632460649006822F03DF806B020
S2140125A0BDE8F0814633002035260020200F0020AC
S2140125B048EC0300012337B54FF4FA610093164A3D
S2140125C00023164801F0C4FA054610B3144C154909
S2140125D0206822F021F81449206822F01DF820F026
S2140125E073FF20F072FF114B114A00931149922399
S2140125F0206822F011F810492B46104A206822F074
S2140126000BF8284601F048FA0D49206822F004F834
S214012610FEE703B030BD00BF0D250100B40D00205C
S214012620200F002095EC030097EC030053ED030008
S2140126309CEC0300D7EC0300E6EC0300E3EC03009C
S214012640FBEC030070B50368A24A23F47F4323F032
S2140126500703934288B005D09F4A934200F0E58075
S21401266008B070BD0DF10F0104A811F077F89B4C6E
S214012670054608B39A49206821F0CEFF994920689B
S21401268021F0CAFF20F020FF20F01FFF964B974A4B
S21401269000939749B723206821F0BEFF95492B4642
S2140126A0954A206821F0B8FF284601F0F5F99349CC
S2140126B0206821F0B1FFFEE7BDF8143001465BBA91
S2140126C0ADF818309DF8133008228DF81A30FF2324
S2140126D08DF81B30FE238DF81C309DF81230182023
S2140126E08DF81D30BDF810305BBAADF81E3006AB64
S2140126F011F006F8054608B37949206821F08CFFE9
S2140127007849206821F088FF20F0DEFE20F0DDFE0B
S214012710754B764A00937649C723206821F07CFFE3
S21401272074492B46744A206821F076FF284601F04A
S214012730B3F97249206821F06FFFFEE7704E30460C
S21401274010F040FF054608B36549206821F064FF94
S2140127506449206821F060FF20F0B6FE20F0B5FE47
S214012760614B624A00936249CB23206821F054FFF3
S21401277060492B46604A206821F04EFF284601F04A
S2140127808BF95E49206821F047FFFEE74FF4C862E7
S214012790009003461146307810F02CFF054608B32A
S2140127A04F49206821F038FF4E49206821F034FF58
S2140127B020F08AFE20F089FE4B4B4C4A00934C4990
S2140127C0D323206821F028FF4A492B464A4A20682D
S2140127D021F022FF284601F05FF94849206821F0E0
S2140127E01BFFFEE70721307810F026FF454B40F22D
S2140127F0FF220093444B06211B68444820F0B1FB9E
S21401280020F062FE20F061FE4149206821F004FFBD
S21401281031783E4800F046F920F056FE20F055FE8D
S2140128203C49206821F0F8FE1AE7354C0221207851
S21401283010F02CFF054610B3284C2949206821F0DA
S214012840EBFE2849206821F0E7FE20F03DFE20F04F
S2140128503CFE254B254A00932549EE23206821F0AE
S214012860DBFE24492B46244A206821F0D5FE284663
S21401287001F012F92149206821F0CEFEFEE702217F
S214012880207810F017FF054600283FF4E9AE134CF8
S2140128901349206821F0C0FE1249206821F0BCFED1
S2140128A020F012FE20F011FE0F4B104A0093104943
S2140128B0F323206821F0B0FE0E492B460E4A20680D
S2140128C021F0AAFE284601F0E7F80C49206821F01D
S2140128D0A3FEFEE7A0000100A0000601200F0020D5
S2140128E095EC030097EC030044ED03009CEC030019
S2140128F0D7EC0300E6EC0300E3EC0300FBEC03007B
S214012900463300200CED0300B00D002035260020D4
S21401291012ED03002EED030038B50D4C20F0EAFD54
S214012920002000F041FA204600F0A6FA00256FF0DC
S2140129307F432046C4E9013520F04FFB2046054978
S21401294020F0AFFC044B1D60BDE8384000F054BADF
S214012950F80D002080EE0300F40D00202DE9F04371
S2140129608FB022F072F90446454D2868201A06F009
S2140129708BFCB0F57A7F80467ED3002600230127A4
S2140129802C600524DFF8189104A80593049600F03E
S21401299055FC05A800F0ACFCD9F80030394D0133E0
S2140129A03948C9F8003020F018FB2F60334632460C
S2140129B03649CDE900443448029720F085FC434669
S2140129C02021334A06A81FF039F92A6806A9D31927
S2140129D02B60D2B23346CDE901472B48009420F054
S2140129E073FC2021D9F800302A4A06A81FF026F9E0
S2140129F02A6806A9D3192B60D2B23346CDE901471E
S214012A002148009420F060FC2021049B224A06A85D
S214012A101FF014F92A6806A9D3192B60D2B23346DF
S214012A20CDE901471848009420F04EFCB2EE047A36
S214012A30DDED057A67EE877AFDEEE77A0A2117EE75
S214012A40902A92FBF1F301FB1322002AB8BF5242EF
S214012A502021009206A8114A1FF0F0F82A6806A95C
S214012A60D3192B60D2B23346CDE90147064800940C
S214012A7020F02AFC00F0C0F90FB0BDE8F08300BFDB
S214012A80EC0D0020F40D0020F80D00205CED030095
S214012A906BED030077ED030082ED03008FED03007D
S214012AA0F00D002037B50C460346027F0021204674
S214012AB010F0D6FD0546F8B1234C2449206821F0D4
S214012AC0ABFD2349206821F0A7FD20F0FDFC20F096
S214012AD0FCFC204B204A009320494223206821F029
S214012AE09BFD1F4A1F49206821F096FD2A461E4974
S214012AF0206821F091FDFEE70221204610F0DAFD64
S214012B000546F8B1104C1149206821F085FD1049A1
S214012B10206821F081FD20F0D7FC20F0D6FC0D4B7B
S214012B200D4A00930D494823206821F075FD0C4A93
S214012B300C49206821F070FD2A460C49206821F0D6
S214012B406BFDFEE703B030BD200F002095EC0300BF
S214012B5097EC030073EE0300A1ED0300D7EC03002E
S214012B60E3ED0300F6ED03000EEE03003AEE03007C
S214012B70034637B50846110ADA711972110C120E9E
S214012B8059729A7200211A7F10F06AFD0546F8B153
S214012B90104C1149206821F03FFD1049206821F0B2
S214012BA03BFD20F091FC20F090FC0D4B0D4A00936C
S214012BB00D495A23206821F02FFD0C4A0C49206844
S214012BC021F02AFD2A460B49206821F025FDFEE763
S214012BD003B030BD200F002095EC030097EC0300F6
S214012BE063EE0300A1ED0300D7EC0300E3ED030061
S214012BF0F6ED03000EEE03000123054A411100F035
S214012C001F00834052F82100034342F821307047E9
S214012C10240E0020044B1B681BB1044B03600020EC
S214012C2070470120704700BF340E0020D8250020D1
S214012C3070B50D4C246884B10C4C85182688B542B5
S214012C400DDC6688CD18B54209DC52B14BB1A080C7
S214012C500020E1802281638170BD0120FCE7042011
S214012C60FAE70520F8E700BF340E0020D82500203B
S214012C702DE9F74F9946494B1B68002B00F08A80D7
S214012C80B9F1000718BF01274FF0010BDFF814A1B7
S214012C907F42BAF80650BAF80A300D9E2B449BB212
S214012CA00D440093FFB2ADB21EB9304603B0BDE885
S214012CB0F08F009AABB29A426ED9BAF80840BAF8C9
S214012CC00430241AB44228BF34461844344B361B09
S214012CD080B203EB0512B9F1000F0AD0072C26D8F3
S214012CE00444A04216D32846FFF786FF013500208C
S214012CF0DAE7072C1BD80444A042F4D2C108535C7F
S214012D0000F0070C0BFA0CFC23EA0C0301305354B9
S214012D1080B2F1E7C10812F801C000F007030BFA10
S214012D2003F343EA0C030130535480B2D9E74FEA68
S214012D30D00C02EBD00810F007000BD1E2083946A0
S214012D40404601922AF0B4FF14F00704019ACAD053
S214012D50904412E00BFA00F312F80CE0DBB2591EB5
S214012D605B420EEA01013B4008381943044402F86D
S214012D700C10E20808F10108E1D10BFA04F498F806
S214012D800030E4B26242013C13403C40234388F8E1
S214012D900030A8E7012688E7042686E7340E0020DF
S214012DA052260020D825002037B5114D2B68EBB9E7
S214012DB000F050F9044610B1012003B030BD00F018
S214012DC03DF928600028F7D002884188094B204643
S214012DD01A801A814A43598059819C80DC80214699
S214012DE0CDE9004223462246FFF742FF0020E4E7F2
S214012DF0340E0020D82500202DE9F84300230125B4
S214012E001A461A4FDFF86C803C68DFF86490D8F8F1
S214012E100000D61841888E4207D3FBB91022002144
S214012E2012482AF045FF002012E0E10708D50133D9
S214012E30D118C9060ABF57F8254064080135E6E7E8
S214012E4053B109EB021100F0B1F8034610B10720A7
S214012E50BDE8F883721CEBE70132E9E7044901EBB0
S214012E60021100F0A3F80028D8D0F0E7240E0020C5
S214012E7052260020340E002030B5054687B000B338
S214012E8000226FF07F43C0E9012301A8FFF7C2FECD
S214012E90044698B9019BCDE902001A882B605B882D
S214012EA0013A013B284602A90492059320F0C0F896
S214012EB0044618B92846044920F0F3F9204607B01D
S214012EC030BD0524FAE700BFB0F103000122014B33
S214012ED01A61704700F0035013B5044606F040F936
S214012EE000230122217BCDE900324900B0FBF1F13C
S214012EF0024A034821F044FE02B010BDCD2E010067
S214012F004C0E0020F7B508260E4C054604F58053F6
S214012F101E67407B06F04EFB04230B4F02220DF189
S214012F2006013846ADF8063020F0FDF9384620F0A7
S214012F300BFAA87B06F03EFB002004F5005426673A
S214012F4003B0F0BD00C003500431002070B5064642
S214012F50124821F092FAB1680022114800F08AF86E
S214012F60002304220321022002F0C0F90023354683
S214012F700C4C04221946184602F0B8F90FCD0FC4BE
S214012F8001222B6830462360074B1A70FFF7A4FF17
S214012F903046FFF7B7FF002070BD00BFB0FA030050
S214012FA004310020380E0020522E00202DE9F34770
S214012FB09046002408221E461D4B8DF806401A67CF
S214012FC00546407B0F4606F0F5FA012219480DF139
S214012FD005018DF8052020F0A6F9DFF85890B442D7
S214012FE007EB041A0CD1134820F0AEF9A87B06F0C3
S214012FF0E1FA08220020104B1A6702B0BDE8F087FC
S21401300008EB040301220DF1070148468DF807304D
S21401301020F089F910225146484620F084F9012211
S21401302048460DF1060120F07EF90134D7E700BFCE
S21401303000D003500431002000E00350034B044845
S2140130401B78002B08BF0020704700BF522E0020BF
S214013050380E002030B5064D87B001AC0FCD0FC439
S2140130602B6801A82360FFF771FF07B030BD00BFD2
S214013070E0F403002DE9F04F04462D4E89B001AD72
S214013080894690460FCE0FC596E80700D4F800B0E3
S214013090284B85E807009B4545D003F580439B45B3
S2140130A043D0254DAB450CBF02254FF0FF35DFF869
S2140130B090A022480AEB4517D7F8AC6521F0DDF958
S2140130C0606821F0DAF9617B207B0023042202F09C
S2140130D00DF90422617A207A002302F007F9012310
S2140130E0584601A98DF81230CDF80C90ADF8148031
S2140130F020F042FB0020627A237A2E3543EA02430F
S2140131000AEB451ACAF80430627B237B06F00406F4
S21401311043EA024346F01806C7F8C035C7F8AC655F
S21401312009B0BDE8F08F0025C1E70125BFE700BF64
S214013130F4F403000080055000000650B0FA0300C6
S21401314000C003502DE9F0412DED028B8EB021F029
S214013150B7FDFFF72FFAFFF7DFFB20F0FAF800F0D4
S21401316039FA0023029300239FED1C8ADFF874804E
S2140131701B4F039321F0B1FD02A800F05FF803A8EE
S21401318000F0B6F8DDED037A67EE887AFDEEE77AB1
S214013190642117EE903A93FBF1F201FB123304A877
S2140131A0CDE9002328214246029B1EF047FD00265A
S2140131B0054604ACAE420ADB1FF0D2FEFFF7CEFB9B
S2140131C04FF47A7005F0E4FF05F054FBD2E7384679
S2140131D014F8011B20F012FB0136EBE70000C84291
S2140131E00080055010F5030030B5702587B0012822
S2140131F0BDF82840ADF80450ADF806000DD1029197
S214013200ADF80C2000230493ADF814300A4B01A945
S214013210186800F0F5FF07B030BD022803D102930D
S214013220ADF80C40EEE7042801BF0291ADF80C2082
S2140132300493ADF81440E9E72831002030B5264B59
S21401324087B01A889B78ADF80C208DF80E300023D5
S214013250044603220120009303A9FFF7C5FF054694
S21401326050B120F031F920F030F91C491C4B186898
S21401327021F0D2F907B030BD502005F089FF0623B2
S2140132802A4600932946022004ABFFF7ADFF28B17A
S21401329020F01AF920F019F91249E7E7002CE9D0D5
S2140132A09DF813309DF812201B0943EA02139DF87E
S2140132B011209FED0D7A43EA023307EE903AF8EEBD
S2140132C0E77A67EE877A9FED097A67EE877AFCEEF2
S2140132D0E77AC4ED007ACDE747F503001EF5030053
S2140132E0200F002033F503000000C842000080359F
S2140132F030B5264B87B01A889B78ADF80C208DF830
S2140133000E300023044603220120009303A9FFF791
S2140133106BFF054650B120F0D7F820F0D6F81C49CF
S2140133201C4B186821F078F907B030BD502005F025
S2140133302FFF06232A4600932946022004ABFFF7F7
S21401334053FF28B120F0C0F820F0BFF81249E7E794
S214013350002CE9D09DF81330BDF814201B0452BA96
S21401336003F4702392B2134307EE903A9FED0B7A63
S214013370F8EEE77ADFED0A6A67EE877A9FED097A5B
S21401338017EEA67A84ED007ACEE700BF47F5030074
S2140133901EF50300200F002033F50300000048430C
S2140133A0000080350000484230B503687C4A23F4AB
S2140133B07F4323F00703934289B040F0EE80082252
S2140133C000211220774B10F09BF9044610B3764D7E
S2140133D07649286821F020F97549286821F01CF9FA
S2140133E020F072F820F071F8724B734A009373491B
S2140133F05C23286821F010F971492346714A286830
S21401340021F00AF9204600F047FB6F49286821F0B1
S21401341003F9FEE70146032214206C4B10F070F905
S214013420044610B3604D6149286821F0F5F86049FB
S214013430286821F0F1F820F047F820F046F85D4BB7
S2140134405D4A00935D496A23286821F0E5F85C49E6
S21401345023465C4A286821F0DFF8204600F01CFB72
S2140134605949286821F0D8F8FEE7014605221620BA
S214013470574B10F045F9054610B34B4C4B492068A5
S21401348021F0CAF84A49206821F0C6F820F01CF855
S21401349020F01BF8474B484A009348497823206898
S2140134A021F0BAF846492B46464A206821F0B4F87E
S2140134B0284600F0F1FA4449206821F0ADF8FEE70D
S2140134C00DF10F0104A810F049F9044610B3364D6A
S2140134D03649286821F0A0F83549286821F09CF87B
S2140134E01FF0F2FF1FF0F1FF324B334A00933349CE
S2140134F08323286821F090F831492346314A286809
S21401350021F08AF8204600F0C7FA2F49286821F0F2
S21401351083F8FEE7BDF8143001465BBAADF8183003
S2140135209DF8133008228DF81A30FF238DF81B30D2
S214013530FE238DF81C309DF8123018208DF81D30B2
S214013540BDF810305BBAADF81E3006AB10F0D8F8F7
S214013550054610B3144C1549206821F05DF814494E
S214013560206821F059F81FF0AFFF1FF0AEFF114B96
S214013570114A009311499323206821F04DF8104910
S2140135802B46104A206821F047F8284600F084FAB6
S2140135900D49206821F040F8FEE709B030BD00BFB4
S2140135A0A00001004AF50300200F002095EC03005F
S2140135B097EC030085F5030053F50300D7EC0300F1
S2140135C0E6EC0300E3EC0300FBEC03007BF50300F1
S2140135D07FF5030030B50D4D89B001AC0FCD0FC49A
S2140135E095E8070084E807004FF4A022084B094835
S2140135F0C3F8C4254FF4C022C3F8BC25142201A980
S214013600C3F8AC2502F05CFA09B030BDB4F503008E
S21401361000C003500080055007B501A802F0A0F9CC
S2140136209DF80530012B27D1214A936DDB0313D476
S214013630536B23F4FF0323F4FE4343F4BC1343F418
S214013640A0635363136B23F4704343F44043136343
S214013650136B43F4E06313639DF8043063B94FF0D2
S21401366000531B68134B1B68134B1B68134B1B68DB
S214013670134B1B68134B1B68134AD2F8803043F078
S2140136800303C2F8803003F0E1FF00F057FB20F09F
S21401369076FF20F0E6FE04F0B5FA00F045FB00F0F8
S2140136A089FC01F00BF803B05DF804EB05F00AB8ED
S2140136B000C00050004000200080002000C0002014
S2140136C000000120004001200080005008B5044899
S2140136D020F0D3FEBDE80840024800F025BD00BF3B
S2140136E0B0FA03001431002030B5204D95B00DAC72
S2140136F00FCD0FC495E80700032384E807000124D3
S2140137008DF84D301A4A1B4B0021CDE903231A4B85
S2140137100E220DF12600CDE905342AF0C9FA4FF440
S2140137208021164B0DAACDE907130B238DF8243003
S2140137300C238DF82530124B07A90A9320230B93EF
S214013740104B1148009303AB8DF8314004F09CF9FF
S21401375004469DF832304FF4E130002B0CBF0321B4
S21401376000211FF005FF204615B030BDFCF7030011
S2140137700080055021000500060004022480055043
S214013780532E00206C0E0020BC0E0020831E012B41
S21401379010B512D8012922D8114B04221B69052124
S2140137A00020C3F3401301F0A1FD0E4B1B681868FF
S2140137B0A8B1BDE81040436A18478B1E012B0CD8F0
S2140137C001280CD8BDE810400022054B05211B69D5
S2140137D01046C3F3401301F089BD0129E5D910BD98
S2140137E000C003502C31002008B50449044805F0F8
S2140137F01FF8BDE80840FFF777BF00BF3031002053
S214013800E00E0020014821F09EB800BFBC0E00204B
S214013810014B1A6A18681047BC0E0020184B37B5C2
S21401382083422AD1174B1B783BB3C8B20FF056FF21
S214013830054610B3144C1549206820F0EDFE1449D6
S214013840206820F0E9FE1FF03FFE1FF03EFE114B00
S214013850114A009311498523206820F0DDFE1049A6
S2140138602B46104A206820F0D7FE284600F014F9AF
S2140138700D49206820F0D0FEFEE703B030BD00BF42
S214013880E80E0020732E0020200F002095EC030088
S21401389097EC030070F8030018F80300D7EC030058
S2140138A0E6EC0300E3EC0300FBEC030030B5002577
S2140138B00368584A23F47F4323F0070385B09342F5
S2140138C004460295ADF80C507ED002F58022934254
S2140138D00ED0A2F18272934240F09A804E4B1B7832
S2140138E0002B00F0958005B0BDE8304021F000BA0D
S2140138F0B0F805301B2B40F08B80FF2304A91A4635
S21401390011E903001FF0D9FD012814BF41F2FC158F
S214013910414B05F0FC0208BF18701B2120790FF0FF
S21401392005FF054610B33D4C3D49206820F074FE66
S2140139303C49206820F070FE1FF0C6FD1FF0C5FD53
S214013940394B3A4A00933A495923206820F064FEDD
S21401395038492B46384A206820F05EFE284600F09B
S2140139609BF83649206820F057FEFEE73449009060
S2140139702379344A0968344800F0EAF805460028F5
S21401398046D0264C2649206820F046FE2549206868
S21401399020F042FE1FF098FD1FF097FD224B234AB0
S2140139A0009323496223206820F036FE21492B46E6
S2140139B0214A206820F030FE284600F06DF81F49A5
S2140139C0206820F029FEFEE7B0F80530B7EE047A4D
S2140139D007EE903AF8EE677AB0F8073067EE877A26
S2140139E0013307EE103AB8EEC77A67EE877AB1EE82
S2140139F0047A67EE877AFAFE677AFCEEE77A17EEC4
S214013A00903AB3F57A7F38BF4FF47A730C4A136055
S214013A1005B030BDA0000602732E0020200F002046
S214013A2095EC030097EC03007FF8030018F80300F9
S214013A30D7EC0300E6EC0300E3EC0300FBEC030029
S214013A40383100201D380100E80E0020012208B59B
S214013A50074B1A700022074B1A700422064B1A7085
S214013A601F22064B1A7003F06FFE054B186008BD47
S214013A7049330020742E00204833002047330020AD
S214013A80200F0020024B0349186820F0C5BD00BF77
S214013A90200F00209FF8030070B50C4C0C49064619
S214013AA0206820F0B9FD03F04FFE0546206803F0BC
S214013AB03FFE3046FFF7E6FF284603F039FE206852
S214013AC00449BDE8704020F0A7BD00BF200F0020CC
S214013AD0A1F80300A3F8030038B505461FF072FDF0
S214013AE000230B4A14685CB1AC4206D1A96A6BB1DB
S214013AF099621FF06DFD012007E02346A46AF2E7F4
S214013B00002DF3D01FF064FD204638BD1160F0E7AC
S214013B10240F002010B50446B0B105F073FA204614
S214013B20FFF7DAFF10B194F82C300BB9002010BD66
S214013B30064C2368002BF9D01FF044FD2368013B97
S214013B4023601FF045FDF1E72220F0E7280F002053
S214013B502DE9F04385B00546914698460E469DF8F8
S214013B60307009B9002F5CD12846FFF7D3FF044611
S214013B70002836D185F82C00686305F07FFB864265
S214013B8033D905F0EDFA2146844640F2E7304FF48A
S214013B907A720023E6FB0C011DF056FD4FF0FF3252
S214013BA000231DF051FD2B46E88611462846CDE937
S214013BB000441D4A21F024F8044690B9C5E9089846
S214013BC085F82D702E631FF0FDFC184A136833B379
S214013BD01A469B6A002BFBD195620023AB621FF04D
S214013BE0F7FC204605B0BDE8F08347B12B463146C9
S214013BF02846CDE900440C4A05F004FBDCE73046D4
S214013C0003A905F0E1FA04460028EAD12B46284626
S214013C10CDE90077044A039920F0CEFFCCE7156082
S214013C20DBE72124DDE700BF313C0100240F002043
S214013C3091F82C3013B50C4683B98B8ECA8E9342FD
S214013C400ED243B9CDE9003320460B46124A4FF057
S214013C50FF3120F095FFA38E0133A38602B010BD7D
S214013C6052B191F82D3093B101230093D1E9082385
S214013C702046096BFFF76CFF012384F82C30074BB5
S214013C801A6801321EBF1A6801321A60E6E7084652
S214013C9005F0B8F9F0E700BF313C0100280F00201D
S214013CA02DE9F041154E336833B34FF00008144F39
S214013CB01FF088FC05463C6824B92846BDE8F0415B
S214013CC01FF086BC94F82C30A3B1336884F82C809E
S214013CD013B13368013B336094F82D3013B9204695
S214013CE0FFF7FAFE28461FF073FCD4E90831204698
S214013CF09847DDE7A46ADFE7BDE8F081280F0020DA
S214013D00240F0020034B1B68002B14BF0420012046
S214013D10704700BF280F0020024B1868B0FA80F0E9
S214013D2040097047280F002008B5034820F0A5FB7E
S214013D30BDE808401FF04ABBB0FA0300014820F076
S214013D409CBB00BFB0FA030007B508201FF04AFC71
S214013D5002238DF80030054B684601931FF0CCFB1B
S214013D60082003B05DF804EB1FF047BC006A18108A
S214013D700348044A0449121A92101FF009BC00BFF6
S214013D8034210100D0220100682F002008B500F080
S214013D902FF8FFF7EDFF124B12498B4212D300208A
S214013DA0114B12498B4218D3FEF776FB186850F870
S214013DB02240586840F82240013298688242F5D382
S214013DC00C33EAE70022F8E71C6844F822000132C7
S214013DD05C68A242F8D30833E4E70022F8E700BFA4
S214013DE094280400A0280400A0280400A0280400A9
S214013DF0124B134A70B59A60D3F88820114D42F4DD
S214013E007002C3F888206FF0010205F5005422669F
S214013E1041F2FF7262660222C3F8D020BFF34F8FD1
S214013E20BFF36F8F4FF44036032003F05FFC03208F
S214013E30E66003F04DFC2E6170BD00BF00ED00E0B2
S214013E400020010000800044014B1868704700BF45
S214013E5040310020014B1860704700BF4031002000
S214013E60084B1B6F03F00703022B04D0032B05D06E
S214013E70012B05D0FEE7044B18687047034BFBE7A0
S214013E800348704700800050403100204831002030
S214013E90002D310108B5FFF7E3FF054B1B6FC3F398
S214013EA001330133B0FBF3F0024B186008BD00BFCD
S214013EB0008000503C3100200048704700B4C40424
S214013EC0014B1868704700BF48310020054B186049
S214013ED0054B1B6F03F00703032B01D1FFF7DABF76
S214013EE0704700BF483100200080005000487047EE
S214013EF0002D3101174B9868C0F304400C280AD8EE
S214013F00DFE800F00B0909090909072119091B1D3A
S214013F101F0011487047002070479B6803F04073EC
S214013F20B3F1807F11D0B3F1007F10D00B4A002B84
S214013F3008BF104670470A4870470A4870470A4843
S214013F4070470A4870470A4870470A4870470A4847
S214013F50704700BF0040015A405DC60000093D00A1
S214013F60C0EA210180BA8C010048E801005A6202C9
S214013F700024F40080841E0040420F00014B1868A4
S214013F80704700BF4431002000239B6AB3F5903F81
S214013F9003D21968064A914203D000230370836056
S214013FA07047012202709A689B694260F7E700BF7A
S214013FB007B0CD5E00239B6A10B5B3F5903F11D2D2
S214013FC019680A4A91420DD1094C227812F0FD0F68
S214013FD001D0002010BDDB6998470028FAD10123E3
S214013FE02370F6E74FF48170F4E700BF07B0CD5EAB
S214013FF0752E00204FF00053014A1A6003F044BBAF
S21401400002020FF0034B5868C0F30800003818BFCF
S2140140100120704700ED00E013B500242948019403
S21401402020F02BFA012304220321204601F05EF939
S21401403020461FF070FB0122234B0520C3F84424C1
S21401404001A920F010FA002839D1204BD3F8F0202E
S21401405042F00102C3F8F020D3F8FC2042F080724F
S214014060C3F8FC201A4AA3F55D431A60019B194A5E
S21401407003F5D52303F2FC43B3FBF2F3164A013BE7
S21401408013610223C2F8F0304FF48073C2F8043390
S2140140904FF06043114AC3F8B02F114AC3F8802E7F
S2140140A0D3F8002E42F48072C3F8002EFF2283F864
S2140140B02020D3F8002E22F48072C3F8002E02B01E
S2140140C010BD00BFB0FA030000D0035000ED00E0C1
S2140140D0FF030040F8590D00000004E055CEACC5C2
S2140140E0090001004FF06043D3F8802E30B5D207A7
S2140140F015D501240B4D8440D5F8FC2042F0807282
S214014100C5F8FC20D3F8002E2243C3F8002E53F83E
S2140141102020002AF0D003F82010002030BD112006
S214014120FCE700BF00ED00E02DE9F04303682F4AED
S2140141300446934285B056D02D4A934250D101256C
S2140141402C4820F09AF901230A22A179207901F05E
S214014150CDF801230A22E179607901F0C7F80A2730
S2140141604FF00108244E4FF0300942F21001237936
S214014170A27909FB036308FA02F25A50642005F09B
S21401418019FA41F210012379A27909FB036308FAAF
S21401419002F264205A5005F00DFA013FE3D10323E1
S2140141A006EB0512C2F89834A17923794A3543EA19
S2140141B00143C2F89C34E27963792D0143EA024354
S2140141C0735140F20113ADF80030E368694602937B
S2140141D0A36820680193237C8DF80C3001F004F964
S2140141E005B0BDE8F08300250448AAE70000015A9F
S2140141F000800650A8FA030000C00350ACFA030082
S21401420038B5054601F02CFA044C012801D1013CD1
S21401421000D138BD284601F009F9F6E7E19304001C
S2140142202DE9F04F9A46564B85B01B7806460F4649
S2140142301546DDF83C909DF844B0DDF85080002B23
S21401424000F09780072A00F296800E9B002B00F064
S2140142509280B9F1000F00F08E80129BB3F5006FCB
S21401426000F38980012803D1109B002B00F0838086
S214014270444B03EB05131B7B002B7ED0424C1022D4
S2140142800021684629F014FD04EB45141022A7BB53
S2140142903946204629F00CFD43F210036380BBF13A
S2140142A0000F03D1E37843F00303E370364A0E9B15
S2140142B002EB451CCCE90193129B6901581E9DF83F
S2140142C04C30C0F30A0003F003039B0643EA001ECA
S2140142D053582E48012E00EA03004EEA0003CDF89B
S2140142E000A0535017D0B8F1000F2ED19CF8023021
S2140142F068F304138CF8023027E00021204629F0E9
S214014300D7FC4FF444736380BBF1000FCED1E37842
S21401431043F03003C9E713230CF1100ECCF80C3030
S2140143209CE80F008EE80F006FF00301DCF81C20FC
S214014330109B61F39F02012FCCF81C20CCF814309F
S21401434003D1CCF81890CCF8043000270D4A290187
S21401435002EB051342F80180159A28465A60694611
S21401436022469F605E7301F003FA384605B0BDE849
S214014370F08F0748FAE70748F8E70748F6E700BF6F
S214014380762E00202C1000202C0F00200F80FFF32B
S214014390028000F0018000F0078000F038B5124B73
S2140143A005461B78DBB1E0B11FF00CF90F4A00237C
S2140143B01146147B54B92B6001251A0101EB031336
S2140143C01D738C501FF004F9204638BD0133082BAD
S2140143D002F11002EDD11FF0FBF80548F5E705489C
S2140143E0F3E70548F1E700BF762E00202C100020E9
S2140143F0048000F0028000F0018000F038B51FF064
S214014400E1F8002305460B4A147B6CB90133082BEF
S21401441002F11002F8D101F067F9074B28461C702B
S2140144201FF0D6F8204603E028461FF0D1F80348CF
S21401443038BD00BF2C100020762E0020058000F02D
S2140144400D4B10B51B78044693B1072812D81FF000
S214014450B9F80A4B03EB04131A7B2AB100241C7328
S2140144601FF0B6F8204610BD1FF0B2F80448FAE770
S2140144700448F8E70448F6E7762E00202C100020C2
S214014480068000F0028000F0018000F0154B13B5A5
S2140144901868002301908DF804301FF093F8124B32
S2140144A01C7824B11FF094F8104802B010BD012208
S2140144B01A701FF08DF80E4B01A81C731C7783F839
S2140144C02C4083F83C4083F84C4083F85C4083F8EA
S2140144D06C4083F87C4008238DF8073001F020F902
S2140144E02046E2E7F8F80300762E0020038000F06D
S2140144F02C1000200A4A08B512785AB107280BD8A2
S214014500084A02EB00131B7B43B1002101F0FAF8C5
S214014510002008BD0448FCE70448FAE70448F8E729
S214014520762E00202C100020028000F0018000F082
S214014530078000F00A4A08B512785AB107280BD846
S214014540084A02EB00131B7B43B1012101F0DAF8A4
S214014550002008BD0448FCE70448FAE70448F8E7E9
S214014560762E00202C100020028000F0018000F042
S214014570078000F00A4A08B5127852B107280AD80F
S214014580084A02EB00131B7B3BB101F03DF900200A
S21401459008BD0548FCE70548FAE70548F8E700BF07
S2140145A0762E00202C100020028000F0018000F002
S2140145B0078000F00D4B1B7893B1072812D889B1FC
S2140145C00B4B03EB00131B7B73B10A4B1A6D0123D4
S2140145D08340134214BF0123002300200B70704751
S2140145E0054870470548704705487047762E0020F5
S2140145F02C10002000000450028000F0018000F022
S214014600078000F00B4A10B512780C4662B10728F5
S2140146100CD859B1084A02EB00131B7B43B101F0D9
S21401462005F92070002010BD0448FCE70448FAE7AD
S2140146300448F8E7762E00202C100020028000F0B7
S214014640018000F0078000F0184B2DE9F0411F6D46
S2140146505B6D1F4000D5FEE701260025144CDFF8F0
S2140146605880374218D02368C8F85060A3B1A168B3
S214014670284601316268A1609847637B012B0BD104
S21401468050B90C4B03EB45131A7B60F341021A73C6
S2140146901A7F60F341021A770135082D4FEA460664
S2140146A004F11004DDD1BDE8F08100BF0000045024
S2140146B02C1000202C0F002000200450024B1968FB
S2140146C0024B186815F074BE4C3100206C31002086
S2140146D070B59400224605460E462AF0B1FA431CF0
S2140146E00AD058B922463146284629F0B7FA00289A
S2140146F0034808BF002070BD0248FCE70248FAE7FD
S21401470010E000F021E000F024E000F010B50446CF
S2140147102AF092FA431C10D088B901F049F92346D1
S21401472020F003002044984201D1002010BD53F828
S214014730042B0132F7D00348F8E70348F6E70348AD
S214014740F4E700BF0EE000F021E000F024E000F006
S21401475008B51EF030FF014B186008BD9C170020FD
S214014760014B18681EF02BBF9C17002041F67133D1
S214014770124A30B5D469124DD3639368A84204F443
S214014780803423F4401306D893600E4AD2F81832C8
S21401479023F002030AE043F4801393600A4B984225
S2140147A0F3D9084AD2F8183243F00203C2F8183295
S2140147B014B10022014BDA6330BD00BF0000035084
S2140147C0005A620200C0075080F0FA022E4B98424F
S2140147D04AD022D82D4B984240D014D82C4B984220
S2140147E039D00AD82B4B984232D02B4B98422FD037
S2140147F02A4B98422CD000207047294B9842FAD178
S214014800284B186F7047284B98422AD0274B98425E
S214014810F1D1244BD3F880007047254B98422BD01A
S21401482009D8244B984223D0234B9842E3D11D4B01
S214014830D3F88C007047214B984221D003F57403BE
S21401484003F510539842D6D1164BD3F8980070470B
S214014850144B986D7047134B586E7047114B586F39
S2140148607047104B986F70470E4BD3F88400704713
S2140148700C4BD3F8880070470A4BD3F8900070476A
S214014880084BD3F8940070470048E8010024F40070
S214014890C0CF6A0080841E0000093D0040420F0020
S2140148A0405DC6000080E00FC0EA210180BA8C019D
S2140148B0007E560380D54302006CDC020090D003D4
S2140148C038B5134B0546D3F820010C4600F0070017
S2140148D004281AD8DFE800F003090D11150001239A
S2140148E005B1286004B1236038BDFFF7ADFA042393
S2140148F0F6E7FFF7E5FA0323F2E7FFF7FBFA0523EE
S214014900EEE7FFF7F3FA0223EAE700231846E7E7A4
S2140149100080005037B50C460021114B0191D3F8A9
S2140149208031054603F00303022B0ED0032B11D072
S214014930012B03D101A8FFF7C3FF0D210DB1019B88
S2140149402B6004B1216003B030BDFFF7D3FA052117
S2140149500190F3E7FFF7CAFA02210190EEE700BFE4
S2140149600080005038B5104B0546D3F840310C4650
S21401497003F00303022B0BD0032B0DD0012B0FD119
S2140149801EF013FE082305B1286004B1236038BD6C
S214014990FFF7F4FA0723F6E71EF00AFE0923F2E70B
S2140149A001230020EFE700BF0080005038B5104B10
S2140149B00546D3F860310C4603F00303022B0BD0F7
S2140149C0032B0DD0012B0FD11EF0EFFD082305B1EF
S2140149D0286004B1236038BDFFF7D0FA0723F6E755
S2140149E01EF0E6FD0923F2E701230020EFE700BFF2
S2140149F00080005038B5144B0546D3F800020C462B
S214014A0000F0070004281BD8DFE800F003090D11A9
S214014A101500012305B1286004B1236038BD1EF0DE
S214014A20C4FD0823F6E7FFF7A9FA0723F2E71EF00D
S214014A30BFFD0923EEE7FFF72DFA0C23800AE9E70D
S214014A4000231846E6E700BF0080005038B5144B37
S214014A500546D3F808020C4600F0070004281BD8C8
S214014A60DFE800F003090D111500012305B12860E8
S214014A7004B1236038BD1EF098FD0823F6E7FFF762
S214014A807DFA0723F2E71EF093FD0923EEE7FFF711
S214014A9001FA0C23800AE9E700231846E6E700BF7F
S214014AA00080005038B5104B0546D3F840320C460E
S214014AB003F00303022B0BD0032B0DD0012B0FD1D8
S214014AC01EF073FD082305B1286004B1236038BDCC
S214014AD0FFF754FA0723F6E71EF06AFD0923F2E70B
S214014AE000231846EFE700BF0080005038B5104B92
S214014AF00546D3F800310C4603F00303022B0BD016
S214014B00032B0DD0012B0FD1FFF7DAF9032305B1E3
S214014B10286004B1236038BDFFF730FA0723F6E7B3
S214014B201EF041FD0623F2E701230020EFE700BF58
S214014B300080005038B50C4605461EF03CFD054B7E
S214014B409A6A54402C4054409C62BDE838401EF09E
S214014B5036BD00BF00C00050032814D005D8012878
S214014B6005D0022809D0002005E00F28FBD1084B0C
S214014B70186FC0F3013001307047054BD3F8900031
S214014B80C0F30460F7E7024B186FC0F38020F2E72A
S214014B90008000501FB500230193252817D8DFE8B1
S214014BA000F0131A1D272C363B51565B60656A7858
S214014BB0161A401616561A272C27361A5127783BEE
S214014BC03B3B3B2727275B60FFF74AF9019001989B
S214014BD005B05DF804FBFFF75DF9F7E7FFF740F96D
S214014BE002460220FFF7B8FFB2FBF0F20192EEE7B1
S214014BF0FFF750F902460320F4E7FFF74BF90246A8
S214014C000320FFF7A9FFB2FBF0F25208EEE70021FE
S214014C1001A8FFF77FFEDAE7002101A8FFF750FEA3
S214014C20D5E702934FF0E0231B695B0705D5FFF735
S214014C3031F90290029B0193C9E703A902A8FFF785
S214014C4091FEF7E7002101A8FFF78CFEBFE70021E0
S214014C5001A8FFF7ABFEBAE7002101A8FFF7CAFEDD
S214014C60B5E7002101A8FFF7F1FEB0E7002101A892
S214014C70FFF73CFFABE7094BD3F8803003F00303A3
S214014C80022BA8D0032B01D000209FE7FFF732F9B3
S214014C909CE7002101A8FFF705FF98E70080005078
S214014CA008B50120FFF776FFBDE8084003498842B2
S214014CB094BF01210221032000F002B880F0FA021D
S214014CC0032810B50C4627D004D8012804D00228A2
S214014CD017D010BD0F28FCD11EF0EAFC1EF0F0FC28
S214014CE0124A013C136F23F4405343EA043313671B
S214014CF0FFF7D0F80021FFF739FDBDE81040FFF7B8
S214014D00CFBF0A4A4C1ED2F8903023F0F85343EA3C
S214014D100463C2F89030DCE7044A4C1E136F23F498
S214014D20806343EA84231367D3E700BF0080005003
S214014D301FB500230193252821D8DFE800F01320B2
S214014D402020202A2F454A4F54595E7120203420B6
S214014D50204A202020202A204520712F2F2F2F2067
S214014D6020204F54314B1B6F03F00703013B032BED
S214014D7005D8DFE803F00C02080A04230193019822
S214014D8005B05DF804FB0323F8E70623F6E70223E4
S214014D90F4E7002001A9FFF7BDFDF0E7002001A917
S214014DA0FFF78EFDEBE702934FF0E0231B695B07ED
S214014DB005D5FFF76FF80B230393039BDEE703A9E3
S214014DC002A8FFF7CFFDF8E7002001A9FFF7CAFD0B
S214014DD0D5E7002001A9FFF7E9FDD0E7002001A9EA
S214014DE0FFF708FECBE7002001A9FFF72FFEC6E775
S214014DF0002001A9FFF77AFEC1E70C4BD3F88030FB
S214014E0003F00303022B03D0032B05D00023B5E7E1
S214014E10FFF740F80B23B1E7FFF76CF80523ADE782
S214014E20002001A9FFF73EFEA9E700BF0080005061
S214014E30024A536A23F001035362704700C00750C9
S214014E4008B5FFF775FF07280ABF024B4FF6FF703C
S214014E50188808BD3433002008B5FFF769FF03281A
S214014E600ABF024B4FF6FF70188808BD3233002088
S214014E7038B50546FFF7AAFC204B04465A68012AB6
S214014E8004D11F494A609A699207FCD10020FFF7B6
S214014E904FFF042803D11EF00BFC1EF011FC194A2B
S214014EA024F0407395421FD0174A95421FD0174AE7
S214014EB0D16811F0060FFBD19068936091684B4062
S214014EC013F4F81F16D12846FEF7C4FF0020FFF79B
S214014ED02FFF042810D1FEF7DDFF0021FFF746FC67
S214014EE0BDE83840FFF7DCBE43F00073DFE743F070
S214014EF08073DCE79060E9E738BD00BF00C0015071
S214014F0000E0015040420F0080841E000000015066
S214014F10F8B504460020FFF70BFF032800F0818058
S214014F2045F60E0302213F4AC2F880303E4B996295
S214014F30012103F580539962936DD903FCD4D4E91A
S214014F4000131B0543EA0163E17B94F820500B43F1
S214014F50217BE77E43EA0143617B6D0143EA01332E
S214014F60A17B43EA811313619169D4E904031B060B
S214014F7043EA806301F000410B43A17E94F82300CD
S214014F800B43217E43EA0143617E43EA0123936199
S214014F90136AE66923F00D0394F8221043EA8703A7
S214014FA066BB1362966A94F8213045EA031326F02D
S214014FB033052B4343F0010393621C4D194A936D4D
S214014FC035EA0303FBD10225174B9D62936D5B0007
S214014FD0FCD41369A56823F4700343EA05531361EF
S214014FE04FF00042104B9A6119B9022203F5805323
S214014FF09A6278B901220E4B9A620BE0334343F072
S21401500008031362936A23F0330303432B4343EAF3
S2140150104103936294F824301BB1024B054AC3F84E
S2140150208020F8BD00C0005000D0005003000140B1
S21401503000E00050F1A7FFFF70B5184CFF28A66AE4
S2140150402AD8A36D13F4803F18BF0122144B18BF52
S2140150509A6202229A62A56D15F08045FBD1114A2B
S214015060A36992F9002023F47F03024423F47F43CB
S21401507082F3080243EA002343EA0243A36131466E
S2140150800220FFF757FDA36DDB0303D53146012050
S214015090FFF750FD284670BD2125FBE700C00050F4
S2140150A000D00050772E0020014B93F90000704786
S2140150B0772E002001231248124A816A9362836D7B
S2140150C003F00303032BFAD1022393620C4A936D78
S2140150D05800FCD40C48936D30EA0303FBD101223F
S2140150E0084B1A65A3F580539A6D9207FCD49A6D06
S2140150F09007FCD59A6D9207FCD50320FFF71ABDE1
S21401510000C0005000D0005003000100F0B5D0E907
S21401511001434FF4D1560227164A41780578566264
S214015120154E4F2977604FF0010728BF4F2106F52E
S214015130805677601669F603FCD441EA0521516171
S2140151401B01417B43EA04230B43017B43EA4103F2
S2140151509360C37B817B1B0143EA4113417C0B4374
S214015160017C43EA41035360837C13B16FF4D1534E
S2140151705362F0BD0000025000100250014B18802F
S214015180704700BF34330020014B1880704700BFC2
S21401519032330020284B984242D01AD8A3F5B703E1
S2140151A0A3F55863984237D00CD8244B984225D0A3
S2140151B0234B98422AD0234B984217D00023224AE9
S2140151C093607047214B9842F8D1214BD3F8BC30FD
S2140151D01FE0204B984227D01F4B984228D01F4BE8
S2140151E09842EBD11A4BD3F8C83012E0184BD3F8DB
S2140151F0A03023F0407343F00073E0E7144BD3F87C
S214015200A03023F0407343F08073D8E7104BD3F8F7
S214015210A03023F04073D2E70D4BD3F8B830F8E74F
S2140152200B4BD3F8C030F4E7094BD3F8CC30F0E79A
S214015230074BD3F8D030ECE7C0EA210180841E008A
S21401524000093D0040420F000040015A0024F400CE
S2140152500080E00F0048E801005A620280BA8C0123
S2140152600C4A10B51369044643F00403136103F0B6
S214015270ADFC1EF03DFA084B084AC3F8202430BFA7
S2140152801EF037FA03F0C4FC1CB9BDE81040FEF767
S21401529001BE10BD00ED00E000E003500000FFFF7E
S2140152A00A4A10B51369044643F004031361084B18
S2140152B0084AC3F8202403F089FC30BF03F0A8FC99
S2140152C01CB9BDE81040FEF7E5BD10BD00ED00E0DD
S2140152D000E003500000FFFF034A0179D36E23F07C
S2140152E030030B43D366704700400050F8B50446C0
S2140152F00D461F4616464AB101238B403021184AF7
S21401530001FB0022F7B141F21001535004EB4403B4
S214015310072D4FF00F014FEA031316D8A80006FA1F
S21401532000F281400F4818441EF0E6F94EB90123F9
S21401533030210B4AAB4001FB042277B141F2100148
S2140153405350F8BD42F21001DFE7A5F108008000D6
S21401535006FA00F281400448E5E742F21001EFE761
S21401536000C0035004C003500CC00350F8B50546F6
S2140153700E4614465AB303F00307836823F44073BA
S21401538083601EF018F9AA6882EA072303F44073C3
S2140153905340AB601EF013F936B9104B9D4217D13E
S2140153A01620FFF7F7FB0646AB680D4BDA5D624346
S2140153B00DD0A2EBC403013B3344B3FBF2F3AA685E
S2140153C0013B920702D5002B08BF0123AB61F8BD54
S2140153D0044B9D42E8D11720E3E700BF0000015AC5
S2140153E01DF903000080065038B500230E4A0364F9
S2140153F000F50053DA634A7804460D4600F10803C7
S2140154007AB903F5805302221A602046D5E90112C3
S2140154102B7BFFF7ABFF20462978BDE838401EF00E
S2140154207BB903F50053EEE7FFFF1F00874B70B50E
S214015430984219D0864B984240F00581854B996871
S214015440C26B12F4C06F15D091050FD5FD225A70AC
S21401545009221A700022026493F90110012900D171
S2140154605A7093F9010070BD7B4BE8E75605EFD5FE
S214015470FE22ECE71C78082C00F2E180DFE814F04D
S21401548009001F004500530070007E009C00A70025
S214015490D6004C880A88E5060AD5120A02F00602EA
S2140154A042F0F002012119704263C1600120DAE77F
S2140154B002F0FE02A10748BF42F00102F2E716061B
S2140154C008D5802100F50052D1634FF608721A8084
S2140154D0022318E05506E9D5402400F50052D463AE
S2140154E04A88D40604D502221A700B784363DDE796
S2140154F096076AD507221A701B7901EBC3031B892D
S214015500012BD3D10823C360D0E71506D9D454069E
S214015510CCD5402400F50052D4634A88920754D56E
S21401552003221A708CE74C880A88E60643BF120AE3
S21401553002F0060242F0F00202F0FE02650709D50B
S2140155401C7942F0010201EBC4010989012904BF5B
S2140155500821C160042119700123C3604263A5E7D5
S2140155601406AED45206A1D5402400F50052D463E9
S2140155704A88560729D507221A7097E71A795D884F
S21401558001EBC2042689AE420FD800240132D2B202
S2140155901A715C804C886507C2D4E40702D4012ADC
S2140155A07FF64EAF08221A7092E76268691C59802E
S2140155B0525D42630622DFE7160682D455067FF562
S2140155C075AF402400F50052D4630522A9E794067E
S2140155D07FF56CAF456A214C46691A793440B4F5BB
S2140155E0003F04BF466A4FF4005601EBC20100F5C6
S2140155F000540A8908BFE6632026E6635C88A24257
S21401560081BF4968661C5E800D5559888A42C9D992
S2140156100424012AC46004D0013A914201D108222F
S214015620C2601A78092A3FF415AF3FE7D2057FF525
S2140156303DAF4FF4807100F50052D16308E74FF695
S21401564009321A8006E76FF003000CE70000015AE2
S21401565000800650AC170020A01700202000020092
S2140156601C4B10B4984207D01B4B98422ED06FF0BB
S21401567003005DF8044B7047184B0269D20744BF1C
S2140156802022C2604A88940702D50C89002CEED0ED
S214015690520702D50A8A002AE9D04FF480721A60AE
S2140156A0002299601A71C023C3604369DB050FD4D9
S2140156B0202200F50053DA63094A5DF8044BDA63E9
S2140156C0036C43F4FC630364FFF7B0BE054BD4E7F9
S2140156D0436AEAE70000015A00800650A01700203E
S2140156E0FFFF1F00AC17002008B5152001F0DEFFF4
S2140156F00022FF21024B5A6599625A6008BD00BF1D
S21401570000000450044A054B002908BF1346012235
S21401571082401A60704700BF401004504020045079
S21401572010B50446417802780120104B12065860E5
S2140157309A60A278152042EA01429A61FF229A6293
S21401574000229A631A644FF000425A654FF0FF3206
S21401575003F500531A6501F0C9FF1520E17801F041
S214015760D3FFBDE81040152001F0B2BF0000045081
S214015770F8B50125C3B2DFF88CC0D1F800E09D4032
S2140157808F7ACB7A0C46097BCCF850500CF5005C2E
S2140157904CF820E04FF0300E184E1B050EFB006053
S2140157A094F80DC043EA074343EA415322F003024B
S2140157B0C0F860C0C36502671DF004FF104B5D654D
S2140157C0237A13B1336C2B433364637A13B1B36B0F
S2140157D02B43B3632279A37943EA0243094A9361CF
S2140157E06179E37943EA014305498B61034B5563CC
S2140157F09D64BDE8F8401DF0EBBE00BF00000450FC
S214015800001004500020045010B50124C0B284409A
S2140158101DF0D8FE044B5A6D22EA04025A659C62BA
S214015820BDE810401DF0D4BE0000045010B50124A0
S214015830C0B284401DF0C6FE074BDA6A224208D188
S2140158405B6B9C430CBF012400241DF0C1FE204667
S21401585010BD0024F9E700BF0000045041F6713284
S214015860034BDA63012203F50053DA60704700BF89
S2140158700000035041F671320121044BDA6303F54F
S2140158800052D1600022DA63704700BF0000035067
S214015890CB784A7810B55B010C7843EA82030A7923
S2140158A0234343EA02130C22424302F1B04213633C
S2140158B0012C02BF8A78024B43F8202010BD00BF9E
S2140158C0D080035008B54FF0B0435A686AB958B152
S2140158D05B680BB11DF02AFF01210D4B59601DF0CD
S2140158E025FF4FF0B043D96008BD5B680BB11DF0D2
S2140158F01DFF0028F0D11DF019FF4FF0B043022222
S214015900DA601DF013FF0122024B5A60ECE700BF7C
S21401591000100058002000584FF0B0414B6810B5F9
S2140159200BB11DF003FF01220B4BC4785A6083783C
S214015930934043EA840344782343047943EA0413F7
S214015940447943EAC4038B60044B5A600378C3F17D
S2140159500203CB6010BD00BF0020005800100058A5
S214015960054B5B69C3F38512827003F03F021B0B84
S21401597042700370704700BF00C0075040F6B73250
S214015980064B5B689BB293429FBF4FF47A72B3FBA0
S214015990F2F3034AD05C88BF002070470080E00F16
S2140159A021F90300014B986CD96C70470080E00F19
S2140159B00120034B9B680A3303F01F03984070478E
S2140159C00080E00F0D4B984208D1A3F50033C3F8D1
S2140159D08411C36D43F08003C3657047084B98423A
S2140159E004D1A3F51033C3F89411F2E7054B98429E
S2140159F004BFA3F52033C3F8A411EAE700800550DD
S214015A0000C005500000065070B5054616461C46F7
S214015A1019B90320FFF7BEF80146402C1BD003D866
S214015A20DCB1202C1BD070BD602CFCD1042303FB01
S214015A3006F2530803EB4113B3FBF2F3094A203B8A
S214015A4002EAC303AA6822F06002AA60AA681443A5
S214015A50AC60EB61E7E70623E9E71023E7E70823F5
S214015A60E5E700BFF8FF7F00012200F580535A608A
S214015A7040F6AA6341F20502436100230D498360A3
S214015A80C365C26000F500520361C361C3649164DB
S214015A9009498365884203D103650023436506E00F
S214015AA006498842F8D001F580418842F4D00123A6
S214015AB053607047FFFF01000080055000C005508D
S214015AC070B50D46FFF7D0FF012300F580567360D1
S214015AD0AB7C04461BB1836843F080438360EB7C58
S214015AE01BB12046297DFFF76DFF2A8A6B7B204676
S214015AF01343EA891343E3602B7BD5E90112FFF7D1
S214015B0083FF6B7D1BB1A36843F48033A360AB7D39
S214015B101BB1A36843F40043A360EB7D2A7E1B07F9
S214015B20120502F4E00203F0E0431343A365697E25
S214015B301F4A8B1E012B1F4B1DD8944217D002F50E
S214015B408042944215D002F5804294420CBF022254
S214015B504FF0FF3203EB4213022041F2AC5203290D
S214015B60985020D10423F3652B78636170BD002221
S214015B70F0E70122EEE7944211D00F4A944210D08A
S214015B8002F5804294420CBF02224FF0FF3203EB33
S214015B904213022042F2AC5201299850E1E700225A
S214015BA0F5E70122F3E7042204F50053DA65DBE7A3
S214015BB00080055000C0035000C0055038B50446AB
S214015BC0054D27F092FB0FCC0FC594E80F0085E832
S214015BD00F00002038BD00BFB817002047F6FF733E
S214015BE09A42F0B572D0022972D83A4B5B5C022B0E
S214015BF06ED8394DDF0005EBC304A17815F83330B4
S214015C00012938BF0121012B13D10025E078401A64
S214015C10A84202D80844C0B2F0BD431B6668A0EB98
S214015C20530336F913609642D4BF1D4603F1FF3085
S214015C30EEE760680028EFD0B0F90040944204DB3C
S214015C40B0F902409442B8BF144683883D44FF2B06
S214015C5019BFC8224FF0280CB0F90620B0F908C0C9
S214015C60A2EB04030CBF0126002693FBFCF333448E
S214015C706E781BB29E4201DD002B01DA731E1BB249
S214015C804FF47A7C01339BB2071D5D1E2DB24FEA9D
S214015C90C50E00EBC505EA88AD689E4214FB0252AC
S214015CA022EAE27202F15C02B2FBFCF204DD37F892
S214015CB0335001339542E8D200EB0E0398889042A8
S214015CC028BF1046884238BF0846A4E7FF20A3E74E
S214015CD00020A1E724F90300B81700200229F0B537
S214015CE060D8314B595C02295CD8304B13F831002F
S214015CF0012816D103EBC1039C78D878012C2146E4
S214015D0038BF0121904294BFC1EB0001C1EB0201F3
S214015D10001BCAB28242C8BF00225B6833F9120078
S214015D20F0BD002A3CD003EBC1035968002939D0E5
S214015D309878904202D3B1F90200F1E7DC78B1F924
S214015D4000009442ECD95C788B88013CA3F1FF06F5
S214015D50734201F10405E4B2734101F10C07DEB2AE
S214015D60B44216D805EBC3034FF47A756A43B3F908
S214015D7002405B68D21A04EBD47302EB630292FB17
S214015D80F4F29042CCDBB1F902009042C8DC10B2CA
S214015D90C6E737F833C05E1C9445E3D33346DEE7E7
S214015DA00348BDE70348BBE724F90300B817002002
S214015DB00CFEFFFF0080FFFF08B50448FFF7FEFE5C
S214015DC0BDE80840012027F094BA00BF28F9030077
S214015DD000487047363300207FB50222084B094938
S214015DE0CDE901234FF00073CDE90313052301A983
S214015DF04FF0FF30059327F0ACFA07B05DF804FBCF
S214015E00006A1800000204002DE9F0418CB08846B3
S214015E10DDE912761D460446002847D0002945D004
S214015E20002F43D0002E41D013F00F033ED120485F
S214015E302049A360002A08BF0146E361C4E90013B4
S214015E40404609A91DF0F2FD68BB204609991DF0E0
S214015E5031FF294620461DF02DFF694640461DF0BC
S214015E6093FE00BB694620461DF010FF404603A97D
S214015E701DF095FEB8B9204603A91DF007FF069749
S214015E800127204645F0005506A9079708951DF0FD
S214015E90FDFE204609A909960A970B951DF000FFFD
S214015EA020461DF0F1FC0CB0BDE8F0812120FAE798
S214015EB000010004000101042DE9F0418CB0884680
S214015EC016461D460446129F00284BD0002949D08D
S214015ED0002A47D0002F45D00B68103B102B41D825
S214015EE0214A22FA03F3D9073CD500231F4A8360CF
S214015EF0C0E90023C36109A940461DF097FD70BBA8
S214015F00204609991DF0D6FE294620461DF0D2FEF0
S214015F10694640461DF038FE08BB694620461DF01E
S214015F20B5FE404603A91DF03AFEC0B9204603A9B6
S214015F301DF0ACFE06960126204606A945F0005542
S214015F40079608951DF0A2FE094B204609A9099758
S214015F500A960B931DF0A4FE20461DF095FC0CB08E
S214015F60BDE8F0812120FAE70101010000000404E8
S214015F7010000020F0B50C4617461E46054695B0A3
S214015F80002874D0002972D0002A70D0002B6ED061
S214015F90036B0F2B5BD80023364A3846C4E900232F
S214015FA0A360E36111A91DF041FD00285BD12046E5
S214015FB011991DF07FFE296B20460F2984BF01F041
S214015FC00F0110311DF076FE384602A91DF0DCFDEA
S214015FD0002848D1204602A91DF058FE384605A9DA
S214015FE01DF0DDFD00283ED1204605A91DF04EFE20
S214015FF00122214B089509920A932B6B05F110009B
S21401600003F00F0141F000510B900F2B0C920D91F4
S2140160100E900F9243F00052109226D90A9B08A9BF
S21401602023F0005320460A931DF030FE0BA92046AC
S2140160301DF02CFE0123119612930F4B204611A939
S21401604013931DF02DFE20461DF01EFC0BE000F103
S2140160502003019000930122102339462046FFF7C2
S214016060D3FE002897D015B0F0BD0EA9DFE721209A
S214016070F9E700BF00000404100000202DE9F04FEE
S2140160809BB00C4690461F460546DDF890900028CA
S21401609000F0B280002900F0AF80002A00F0AC804A
S2140160A0002B00F0A980026B02EB09031B09B3EB7E
S2140160B0121F02F00F0600F0978000234F4A8B60F4
S2140160C0C1E90023CB61404617A91DF0AFFC03468A
S2140160D0002840F0858006EB090B204617992BF027
S2140160E00F0A1DF0E7FD514620461DF0E3FD404630
S2140160F002A91DF049FD0346002871D1204602A9D8
S2140161001DF0C4FD404605A91DF049FD03460028C3
S21401611066D14FF00108019005A920461DF0B6FD95
S214016120374A204608A90895CDF824800A921DF022
S214016130ADFD46F00051AAEB060605F1100346F048
S21401614000560B93CDF830800D910E97CDF83C801C
S21401615010960D99204621F000510D910BA9009340
S2140161601DF094FD20460EA91DF090FD019B244ACA
S2140161701193AAF1100343F00053CDF8488013930E
S21401618005F120031493CDF854801692139B2046F4
S21401619043F080431393139B11A923F000531393E9
S2140161A01DF07EFD204614A91DF07AFD144A17A99C
S2140161B020461795CDF8608019921DF071FD204696
S2140161C01DF062FBAAEB0B0149440190ABEB0A02FE
S2140161D00098394427F08AFD019B2A6B4A442A63BA
S2140161E018461BB0BDE8F08F10304A463946304499
S2140161F027F07CFD0023F0E72123F1E703020004EA
S214016200100000202DE9FF474FF000080E46174604
S2140162100446CDF80080002859D022B9002528462A
S21401622004B0BDE8F087002951D032F0030902F02E
S214016230030A1FD04FF0E063C0E900380123019143
S214016240C0F808800293C0F81C8049F0005301A9E9
S21401625003931DF025FD494620461DF02BFD2046E3
S2140162601DF012FB054628B14A464146304627F046
S2140162701FFDD4E7BAF1000FD0D04FF000084FF061
S214016280E063C4E900380123CDF804D00293114B32
S214016290204601A9C4F80880C4F81C8003931DF0A9
S2140162A0FFFC042120461DF005FD20461DF0ECFAFA
S2140162B0054608B13A46D8E7009A4E44EB00013548
S2140162C022FA03F3AA4506F8013BF7D1A6E72125F2
S2140162D0A5E700BF04000020F0B50F4616461D4690
S2140162E0044693B010B9212013B0F0BD0029FAD0AE
S2140162F0002AF8D0002BF6D0002331461A4638463D
S2140163001DF039FB0028EFD1304602A91DF0DEFA58
S2140163100028E9D138683449029A88426B695ED10F
S2140163209342E0D32B68002BDDD14FF060623846F4
S214016330C4E90023A360E36101A91DF077FB0028EF
S214016340D2D10199204621F4F06101911DF0B2FCF1
S214016350694628461DF06AFB0028C5D120460099EB
S2140163601DF0A8FC384609A91DF00EFC0028BBD17B
S214016370204609A91DF08AFC38460CA91DF00FFC21
S2140163800028B1D120460CA91DF080FCEB684BB16A
S214016390284606A91DF0F8FB0028A5D1204606A927
S2140163A01DF074FC304603A91DF0F9FB00289BD1B3
S2140163B0204603A91DF06AFC28460FA91DF0EFFB35
S2140163C0002891D120460FA91DF06AFC032520461E
S2140163D01DF05AFA012887D1013DF8D184E7B3EBC5
S2140163E0420F9FD27FE700BF200000B070B50E4677
S2140163F0154604468AB000285CD000295AD0002AE7
S21401640058D0012329461A4630461DF0B4FA002812
S2140164104ED1B36813F4C04F4CD0AB6803F4C043FD
S214016420B3F5005F46D1254BA060C4E90030E061BA
S21401643007A930461DF0FAFA002839D120460799F7
S2140164401DF038FC012302934FF00053204601A9AA
S21401645003931DF01BFC304604A91DF0A0FB38BBBE
S214016460204604A91DF012FCEB681BBBAB6803F4C5
S214016470C043B3F5005F1DD1694628461DF049FAB1
S214016480B0B9009B6A699A4216D32A6943F0005351
S21401649007920122204607A90892032509931DF0B9
S2140164A0FFFB20461DF0F0F9012801D1013DF8D18E
S2140164B00AB070BD2120FBE71D20F9E700000102AC
S2140164C01FB5044698B191B100230A4A8360C0E91A
S2140164D00023C361012301910293074B01A9039392
S2140164E01DF0DEFB20461DF0CFF904B010BD2120C3
S2140164F0FBE700BF000008430400002006289ABFFF
S214016500014B185C0020704714FA030030B5154B98
S21401651087B00293144B0390049346F611030D467D
S214016520059300F077F91428044616D168461DF045
S21401653077FC4FF0A843032202A95A6319601D6134
S2140165409A63DA6B9207FCD1142C02D168461DF0CF
S21401655075FC00F08FF9044601E00028E9D02046DA
S21401656007B030BDD8170020040000202DE9F04FF9
S214016570B1B005468C469E46E8466F4EDDF8EC9077
S214016580409C06F1100A474630687168083603C712
S2140165905645B846F7D13E9B03EB0208C8F1000A00
S2140165A00AF00F0AB9F1000F00F09D80C9F100074B
S2140165B007F00F070121DDF8FCB044F00050C4F1EC
S2140165C01006CDF810B005910690300200F4F85090
S2140165D040F021000790B9F1000F40F08680CDF819
S2140165E020D047F00050002D00F084800991212131
S2140165F00A9041EA07210B9142F00050CDF830C0D5
S2140166003D9B08A94FEA0A2C0D910E904CF04100D3
S2140166100F901093002A75D13E9B119143F00053C1
S21401662012933C9B1390149310AB1593434B444A1F
S214016630169340F611031793424B0021002D08BF15
S2140166401346189314AB19933F4B10221A93112338
S2140166501B931CAB184627F02BFB01221D92002230
S21401666046F0804603461E96239205B9EB46102C4B
S214016670CDF880B024AE4BD101232246002130460E
S2140166802193229427F014FB20AB002125938F42FF
S21401669018BF334647F0804226923A9A2CA8289291
S2140166A02993B2FA82F35B0949EA837310222B918C
S2140166B02A9327F0FDFAB9F1000F00D028AED04496
S2140166C048F080432CA918A82D962E93FFF71EFF9D
S2140166D030B92DB90346A34225D1002818BF2C2076
S2140166E031B0BDE8F08F102764E7CDF820E049F01F
S2140166F0005078E7002C3FF479AF04A909910121F5
S2140167000A9076E73E9B0CAA11924120129388E7E5
S2140167101022002130462193229427F0C9FA002C3A
S214016720B2D10123B1E703F1C0026A4412F8C02CCA
S21401673001331043CFE700BF1BFA0300100000200F
S21401674030FA030034FA030004000020F0B5C02933
S2140167509FB0DDE9244557D0B1F5807F04D080296C
S21401676048D029201FB0F0BD01265CB140F2344765
S2140167700294102403960494212401970594069507
S21401678002AC0AE040F214470294102403960494E3
S21401679021240594012401970695079401251024C8
S2140167A0089409950A9221220B950C940D92174A8A
S2140167B00AAD0E92164A0F95109242F611021192E8
S2140167C0129313951494159201AA1692D3B112AB93
S2140167D01793042318931123199316AB1A901B933E
S2140167E040F61103C9081C911AA806A91D93FFF7C4
S2140167F08DFEB7E7012614B94FF48267C4E74FF45C
S2140168008667B5E70EABE3E70F20ABE72CFA03008C
S21401681010000010144A38B5D2F8803243F0010354
S214016820C2F88032114B5B68C3F3080343B14FF0E3
S214016830A842D36B13F0430FFBD11424204638BD76
S2140168404FF0A843DC6B14F04304FBD1084D2B68D2
S2140168501BB90421284603F0EBF82B68013343F0FB
S21401686000432B60EAE700BF0080005000ED00E027
S214016870D8170020014B00205B68704700ED00E050
S214016880012300F01F02A0F506200949A0F550607B
S2140168904009934051F820201A4341F82020054929
S2140168A051F8202022EA030241F82020704700BF59
S2140168B0F0170020DC1700200121A0F506230E4A60
S2140168C0A3F550635B0900F01F00814052F82300D6
S2140168D0014342F823100949D1E90030034488688E
S2140168E00344C868096903445B1802BFC2E9003360
S2140168F0C2E9023313617047DC170020F01700204D
S2140169002DE9F04FA9B003921D4604460822339E96
S214016910CDE90401414021FA02F34B40980702F108
S214016920080218BF9B00202A1C44F4D18123B4FB23
S214016930F3F303EBC313E41A734B04F506241B7835
S21401694004F55064002B3ED1FDF7B8FE074620B192
S2140169506FF0910029B0BDE8F08F0146402208A8EB
S21401696027F0A6F94022394618A827F0A1F9DFF842
S214016970B481DFF8B491C3460BF10F0ACDF800A03D
S214016980102208A95B46D9F8000026F05FFA00221B
S214016990014608F1100808AF914246D1CDF800A093
S2140169A05B461022D9F8000018A926F058FA4FF0D5
S2140169B0000A834618AFD34541D1544B9845DAD1E6
S2140169C00122514B1A704FF0810A4FF00008DFF890
S2140169D05CB1A4F50627A7F550635B095BF8232095
S2140169E004F01F01CA40D2073DD4494A52F8233069
S2140169F0CB40DB072AD5B8F1000F08BFA04681239C
S214016A00A7F6FF47B7FBF3F303EBC313FF1A07F52C
S214016A100624BAF1010A04F55064DAD1039BBBB12E
S214016A20B8F1000F14D0444619E057F8040BCDE92D
S214016A300612FFF725FF079A06990132ACE757F8C9
S214016A40040BFFF739FF0AF1010AB4E7039B13B9F8
S214016A506FF08B007EE7B8F1000F18BF4446349BF9
S214016A6000201C6076E7329B13B10023329A136034
S214016A700EB1002333601023DFF8AC9000932A4652
S214016A8000232146D9F8000013F004FE60BB3299BA
S214016A902A68204BC9B99A4206D02146D9F8000087
S214016AA013F090FE0028D3D1D5E90223DDE90410C6
S214016AB0834208BF8A42A2D1039B002BCFD06B68CA
S214016AC0012BCCD16FF0840044E7102032999A4212
S214016AD00860E2D1002EE7D033462146D9F80000FF
S214016AE018AA13F02BFE48B10B4B9842D5D00B4B8E
S214016AF09842D2D00A4B9842D6D029E7329A3368C8
S214016B0012689B1A3360CFE7782E002000710800C8
S214016B10DC170020105D175EFFDF00F011E000F0CB
S214016B20FEDF00F0006D08006C310020F017002039
S214016B302DE9F04F87B08246894698461646DDF81D
S214016B4040B02AB1002B4FD040F26C739A424ED817
S214016B50BBF1010F4ED8002406F11007394601207B
S214016B6005941DF0A5FF0546002846D021463A4665
S214016B7027F09EF805ABCDE9014300942B46012290
S214016B8050464946FFF7BCFE044680B110F18C0F13
S214016B9008BF6FF08D043A460021284627F088F892
S214016BA028461DF067FF204607B0BDE8F08F144B5E
S214016BB0C5E902A92B60C5F804B02EB1324641469C
S214016BC005F1100027F092F8059E0E483B462A462E
S214016BD03146006813F0C6FC18B93046FFF750FE80
S214016BE0D9E76FF09104D6E76FF08604DBE76FF024
S214016BF09104D8E76FF08504D5E76FF08C04D2E7EF
S214016C00105D175E6C3100202DE9F0438DB0814692
S214016C10DDE914780E4615461C469BB1B8F1000F07
S214016C2005D16FF0860630460DB0BDE8F083002F23
S214016C30F7D0B7F1005FF4D3C3F1005303F5C033C7
S214016C409F42EED81022002108A827F031F8002232
S214016C5007AB029305AB019306AB3146009348465A
S214016C6008ABCDE90522FFF74BFE06460028DAD130
S214016C70059BA4B1AB4215D853EA0504D1D1069BB6
S214016C800B48C8F8004000943A46079900682B4420
S214016C9013F000FD002818BF6FF09106C3E7AB4262
S214016CA0EDD2BEE75B1B9C4228BF1C46E7E700BF50
S214016CB06C31002030B58DB00C46054610220021FF
S214016CC008A826F0F5FF002207AB029305AB019357
S214016CD006AB21460093284608ABCDE90522FFF70F
S214016CE00FFE0446D8B9099B012B1BD0079D104BFC
S214016CF02946186813F066FDB8B90122A5F50623E2
S214016D000C49A3F550635B0905F01F00824051F85A
S214016D1023004240284641F82320FFF7CDFD2046B8
S214016D200DB030BD6FF08404F9E76FF09104F6E71B
S214016D306C310020F01700202DE9F04F93B0044687
S214016D40DDE91E75DDE920689346DDE91C028A4609
S214016D50DDF8889029B96FF08604204613B0BDE8A7
S214016D60F08FBBF1000FF6D00FB9002DF3D108B9A3
S214016D70002AF0D116B9B8F1000FECD1B9F1000F25
S214016D80E9D02C4A934251D12388B3F5105F4DD1F7
S214016D902022002102A826F08BFF202200210AA82B
S214016DA026F086FF02A81CF082FD10B16FF0920457
S214016DB0D3E720465A4651460AAB1DF0A1F80446D1
S214016DC00028CAD10A981DF08FF804460028C4D1BD
S214016DD015B9C9F80050C0E7B74224D27B199E42C4
S214016DE021D24545B7D839462A46304626F046FFD1
S214016DF0374615F00F0AAED1CDE900762B4652463E
S214016E000AA902A8FFF700F807460028E1D0424683
S214016E105146304626F04CFF012FC9F800A0C5D1D7
S214016E206FF08B0499E74545E3D994E76FF0850445
S214016E3093E700BF004440042DE9F04FB3B00C4681
S214016E4005460021164602A8202298463C9FDDF8FA
S214016E50009126F02DFF202200210AA826F028FF07
S214016E602022002112A826F023FF202200211AA8A2
S214016E7026F01EFF00213C2223A8229126F018FFAF
S214016E8034B12EB127B13E9B13B1B9F1000F05D134
S214016E906FF08604204633B0BDE8F08FB4F800B03A
S214016EA0B4F802A00BF4E043B3F5804FF0D0384BB2
S214016EB0384A2B4043F01063934202D06FF08504AA
S214016EC0E8E70AF10703B8EBD30F4FEAD305DFD3A0
S214016ED03F9B9D4258D81AA81CF0E9FC10B16FF0F0
S214016EE09204D7E7002301A91AA80193FFF7E8FA4D
S214016EF00028F4D1019B284A23F07F439342019353
S214016F00DCD947F212139B45D8D1BAF5807FD5D18B
S214016F10224B01370A933D9B0D90023323F0030366
S214016F200F93402317936B000E97159013932046EB
S214016F304246314622AF02AB16971CF0E1FF0446EB
S214016F400028A7D10C9B129043F400531AA80C9367
S214016F501CF0ADFC0028C2D112AB0AAA02A91AA8DD
S214016F60FFF7BAF9064610B1482891D1A6E72A4696
S214016F7039463E9826F0BAFE3346BB550136402EBA
S214016F80FBD1C9F8005085E76FF0890482E700BF9E
S214016F900000FFF600000209010201002000008047
S214016FA0F8B5134642880C460732072A4FEAD20143
S214016FB001D0A1424DD146680588C76820221846EF
S214016FC0002126F075FE360A0346002E44D1002C19
S214016FD03FD041F20102954205D0B5F5885F02D057
S214016FE0B5F5905F02D15C60002011E0B5F5105F49
S214016FF007D1182C03D0202C01D0102C29D11C60CD
S214017000F1E705F44F42B2F5824F02D06FF08500EA
S214017010F8BDEAB2122AF9D1202CF7D1104A25F090
S214017020FF05B5F5E24F02600CD0B5F5824F10D1E1
S2140170304FF4005217F4705F09D017F4864F04D04E
S2140170409A60E3E74FF48042F4E742F480629A6084
S214017050CAE76FF08600DBE76FF08B00D8E700BF6A
S214017060200000802DE9F04F9A460388144603F469
S2140170704F42B3B0B2F5824F0F46DDF8F89002D01A
S2140170806FF0850056E011B96FF0860052E0002CD3
S214017090FAD0B9F1000FF7D0DAB2122AF0D123F004
S2140170A0FF03B3F5E24F34D14388C9F800305BBB28
S2140170B0E300C9F80030B3F5807FE1D1002318461C
S2140170C055493D19214411F8016D15F8012D10435C
S2140170D0921B0CBF4FF0FF360026AF4203EA0603B1
S2140170E043EA0203EFD10028CED0002BCCDA3C9B3A
S2140170F09C4200F28E8022463946504626F0F6FD26
S2140171003D9B00201C6015E0DA1DB4EBD20FD2D0F7
S214017110BAE7B3F5824F79D10B78042BB4D120228C
S214017120002101A826F0C4FD01A81CF0C0FB20B177
S2140171306FF0920033B0BDE8F08F0090694601A869
S214017140FFF7BEF90028F3D1009B344A23F07F43B2
S214017150934295D94FF000083E22414622A8CDF829
S214017160848026F0A5FD01234FF0420B20224146E4
S21401717009A88DF88430651E26F09AFD7B1C202216
S214017180414611A80D9321AE0E9526F091FD2022C1
S214017190414619A81596CDF858B026F089FDEA00A3
S2140171A05208B2F5807FCDE91D6BC9F800200BD0DF
S2140171B003D8E02A3FF464AF66E7B2F5C07F3FF438
S2140171C05FAFB2F5047FF5E7154B09AA0993119352
S2140171D04FF400530B934FF480431393402311A9AC
S2140171E01A9301A819ABFFF777F8D9F800300733DF
S2140171F0DB085A0033B1531E013B86F8008006F1C6
S2140172000106F9D200283FF472AF3DE76FF0960011
S21401721090E76FF089008DE738FA0300010201005C
S214017220200000802DE9F04F8FB0DDF860808146A8
S2140172300C4692469B461A9FB8F1000F05D16FF097
S214017240860420460FB0BDE8F08F002FF7D0002847
S214017250F5D02022002106A826F02AFD06A81CF05B
S21401726026FB10B16FF09204EBE714F47C1FC4F315
S21401727005452AD0102DE2D8199B9D4233D81D4BC7
S21401728024F47E149C4231D1002302AECDE90233B0
S214017290CDE9043352465B464946009606A8FEF7FA
S2140172A00BFE044698B92A463146404626F01EFD96
S2140172B0234633550134102CFBD100243D6006A82B
S2140172C01CF0FFFA0028BCD0CCE71025D4E7212813
S2140172D006D0012814BF6FF092046FF08B04EEE71E
S2140172E06FF08604EBE76FF08904AAE76FF0850478
S2140172F0A7E700BF0002C00370B50E461446054658
S21401730010B96FF0860070BD0029FAD0382200212E
S21401731026F0CEFC094B24F47E129A420AD1338819
S214017320B3F5105F06D1C4F30543102BE9D800204E
S2140173302C60E8E76FF08500E5E700BF0002C003B8
S214017340F0B50F4616461D4604468BB088B302B903
S2140173507BBB2022002102A826F0AAFC02A81CF072
S214017360A6FA20B16FF0920420460BB0F0BD236858
S214017370114A23F47E13934215D135B9002402A88D
S2140173801CF09FFA0028EFD0ECE733463A4600950A
S21401739002A9201DFEF772FE012807D00028EDD0B5
S2140173A06FF09204EBE76FF08804E8E76FF08B0468
S2140173B0E5E76FF08604D7E70002C0032DE9F04148
S2140173C08CB0884616461D460446129F002840D0BB
S2140173D0002A3ED0002B3CD0002F3AD0102B036859
S2140173E028BF102513F47C1FC3F3054202D0954233
S2140173F028BF15461A4A23F47E1393422CD1202225
S214017400002104A826F054FC002304A8CDE900338B
S214017410CDE902331CF04BFA40B96B46424604A94B
S214017420201DFEF7A7FD30B100233B606FF09200F0
S2140174300CB0BDE8F08104A81CF043FA044600280D
S214017440F2D12A466946304626F050FC20463D6079
S214017450EEE76FF08600EBE76FF08800E8E700BF25
S2140174600002C0030023C36001F138030361202337
S2140174700A6843618B6D0B4922F47E128A4243608F
S21401748003D001F580718A4208D1102B01D0182B48
S21401749002D1036000207047202BFAD06FF08800DD
S2140174A0704700BF0001C00330B58BB06D46604C1D
S2140174B00FCC0FC554F8043B68462B604FF07E6333
S2140174C093F89C306D46FF2B08BF25238DF80130BD
S2140174D0FDF71CFE3220FDF751FE0FCC0FC50FCC79
S2140174E00FC594E8030085E80300524BD3F84C21FE
S2140174F0110340F18380A3F5FE431C884FF6FF730A
S2140175009C4208BF81248DF81940FDF7CDFD044447
S21401751084F3080448488DF81840FCF7D7FC684601
S214017520FDF7F6FC3220FDF72FFE444C4448FDF7EC
S2140175309FFC4448FDF72EFE1CF0C6F8236F002082
S21401754023F0070343F002032367236F23F450530A
S21401755043F4806323671CF0BEF83B4BD3F8FC2052
S214017560D2014FD4D4F8803023F0030343F0020352
S214017570C4F88030314BD3F8202122F0070242F0C4
S2140175800102C3F82021D3F8802122F0030242F041
S2140175900102C3F88021D3F8402122F0030242F011
S2140175A00202C3F84021D3F8602122F0030242F020
S2140175B00202C3F86021D3F8402222F0030242F00F
S2140175C00202C3F84022D3F8002222F0070242F05A
S2140175D00202C3F80022D3F8082222F0070242F082
S2140175E00202C3F80822FDF723FC4FF0E022002038
S2140175F0136963F0040313610BB030BDD3F8504137
S214017600E4B280E7D3F8FC2022F08072C3F8FC20B5
S214017610D4F8802022F0030242F00202C4F880204F
S214017620D3F8FC2042F08072C3F8FC20A2E700BF2A
S21401763058FA03000080E00F00F049020080005075
S21401764000B4C404C0EA210100ED00E06FF00403B9
S214017650502110B50A480B4C13F0800F03F10102BC
S21401766006D123443D2A83F800131346F4D110BDF6
S21401767003F00F03043B034419761346ECE700BFFF
S21401768000ED00E000E100E0BFF34F8F0549064B37
S214017690CA6802F4E0621343CB60BFF34F8F00BFAA
S2140176A0FDE700BF00ED00E00400FA0500280CDB52
S2140176B001220649430900F01F008240203341F8A9
S2140176C02320BFF34F8FBFF36F8F704700E100E0B9
S2140176D0002807DB01234109034A00F01F0083400D
S2140176E042F82130704700BF00E100E0002808DBC7
S2140176F001224309034900F01F008240603341F82C
S2140177002320704700E100E00028ACBF00F1604094
S214017710064B4FEA0111C9B2ABBF00F5614000F05C
S2140177200F0080F800131954704700BF14ED00E0F5
S21401773010B504461BF03FFF024B1C601BF03FFFD9
S214017740002010BD0418002010B51BF034FF034BB9
S2140177501C681BF034FF204610BD00BF0418002033
S214017760034B022218680023806819461AF0B2B942
S2140177707432002030B51446054687B010461CF01A
S21401778095FF6369024683423CBFD4E903315B1827
S2140177901B1A7BB10F49049403910021CDE90131F5
S2140177A0012300932846D4E900131BF032FF002082
S2140177B007B030BD0122627694F82D20002AF6D05B
S2140177C084F835301321E369204698472046636ADA
S2140177D09847ECE7757701002DE9F04788B0044635
S2140177E00F46164698461BF0EDFE8146002E7AD0CF
S2140177F0237E03F0FF02002B00F0A28020461CF03F
S21401780055FF6569A84205D1637ED4E90332134466
S2140178105D1B01E0F9D9451BB54228BF35461BF073
S214017820D1FE94F82D308246002B6DD12A4638467B
S214017830616926F05BFA63692E462B44636121E099
S214017840037803F0FD0111295BD1216B814205D13B
S214017850A3F111014B424B4184F83430013E636978
S214017860216B01328B4203F1010308BF236363617D
S21401787095426069E4D1D4E90323216B134499420C
S21401788000D122630025D4E9032361691344994298
S21401789008BF6261207A6576FCF72CFE20461CF054
S2140178A005FF6369834232D1257694F82D30E56869
S2140178B0656103B125632046636A9847214B0494AA
